:100000000C9487000C94B1000C94B1000C94B100D6
:100010000C94B1000C94B1000C94B1000C94B1009C
:100020000C94B1000C9428010C94B1000C94B10014
:100030000C94B1000C94B1000C94B1000C94B1007C
:100040000C94B1000C94B1000C94E3050C94B10035
:100050000C94DE070C9474080C94B1000C94B1005D
:100060000C94B1000C94B1000C94B1000C94B1004C
:100070000C941A080C94A8080C94B1000C94B100CC
:100080000C9433030C94B1000C94B10000002100D7
:10009000240027002A0000002200250028002B0051
:1000A00000002000230026002900040403030303AA
:1000B0000303030402020202010101010101010123
:1000C00004020202020404030102010204081020D7
:1000D0004040102040800102040810204080800130
:1000E0000208042010800000000000000000000052
:1000F0000000000000000000000000000000000000
:100100000003040014016705A905E909600511242D
:100110001FBECFEFD0E4DEBFCDBF11E0A0E0B1E065
:10012000EEEDF7E100E00BBF02C007900D92A631A3
:10013000B107D9F713E0A6E1B1E001C01D92AB3FD2
:10014000B107E1F711E0CCE0D1E004C02297FE0155
:100150000E94A70BC430D107C9F70E948B0A0C94E8
:10016000E20B0C940000A0E0B0E0E9EBF0E00C94AE
:10017000B30BEC01A880B980CA80DB80A114B10464
:10018000C104D10441F484E2A82E89EDB82E8BE598
:10019000C82E87E0D82EC601B5012DE133EF41E02E
:1001A00050E00E94760B27EA31E440E050E00E94E4
:1001B000160B7B018C01C601B5012DE133EF41E047
:1001C00050E00E94760BCA01B9012CEE34EF4FEFDC
:1001D0005FEF0E94160B6E0D7F1D801F911F97FF12
:1001E00004C06150704080409048688379838A835E
:1001F0009B839B01AC015F77B901CA01CDB7DEB724
:10020000EAE00C94CF0B0E94B300089580E091E0E7
:100210000E94B300089560930001709301018093E0
:10022000020190930301089580E090E0A8ECB2EC05
:100230008093160190931701A0931801B0931901B0
:100240000895FC01158260931A0110921C01089513
:100250001F920F920FB60F920BB60F9211242F938D
:100260003F934F935F936F937F938F939F93AF933E
:10027000BF93EF93FF9380911A010E94AD07482F1F
:1002800080911D0190911E01019690931E01809313
:100290001D018091E701843618F085E080931B01F1
:1002A00080911B018330D1F0843020F4823009F03A
:1002B00059C006C0843071F1853009F053C04CC07C
:1002C000442309F04FC080911D0190911E01843696
:1002D000910508F443C01092E7011EC0413009F0B7
:1002E00041C08091E701E82FF0E020911D0130919D
:1002F0001E01EE0FFF1FE65EFE4F368325838F5FE4
:100300008093E70110921E0110921D0184E08093FA
:100310001B0128C04423B9F48091E701E82FF0E0E5
:1003200020911D0130911E01EE0FFF1FE65EFE4F72
:10033000368325838F5F8093E70110921E01109210
:100340001D0183E0E4CF80911D0190911E0185364F
:10035000910540F085E0DBCF442321F410921E018B
:1003600010921D0180911C01882329F0442311F46F
:100370002D9A01C02D98FF91EF91BF91AF919F9160
:100380008F917F916F915F914F913F912F910F903E
:100390000BBE0F900FBE0F901F901895FC0180911F
:1003A000E8018C3090F482838F5F8093E801815064
:1003B00090E0FC01EE0FFF1FE80FF91FE751FE4F21
:1003C00088EB9BE09283818308958FEF8283089569
:1003D000FC0122812C30B8F58381992787FD909507
:1003E00048E850E0481B590B440F551F440F551F58
:1003F0006417750784F08481992787FD909548E5F7
:1004000052E0481B590B440F551F440F551F6417EA
:1004100075070CF4AB0142505040CA01AA2797FD62
:10042000A095BA2F880F991FAA1FBB1F4FB7F8942A
:1004300030E0F901EE0FFF1FE20FF31FE751FE4F0F
:10044000928381834FBF0895AF92BF92CF92DF9284
:10045000EF92FF920F931F93CF93DF93EC019B01D9
:1004600082E0603278070CF048C077FF03C020E0DC
:1004700030E005C0653B710514F024EB30E000D09E
:1004800000D0B901882777FD8095982F2B813327DD
:1004900027FD3095E8E8AE2EB12CA21AB30AAA0CBB
:1004A000BB1CAA0CBB1CCC24B7FCC094DC2CEC817C
:1004B000FF27E7FDF09528E532E02E1B3F0B220FCA
:1004C000331F220F331F442737FD4095542FEDB7BC
:1004D000FEB7218332834383548320E030E040E041
:1004E00050E004EBE02EF12C012D112D0E94C40AE6
:1004F0009B010F900F900F900F90CE01B9010E94B9
:10050000E801DF91CF911F910F91FF90EF90DF9065
:10051000CF90BF90AF900895CF92DF92EF92FF926D
:100520001F93CF93DF93EC01162F7A0169018A8123
:100530008C3008F061C0862F61E00E94FD068A8140
:1005400090E0FC01EE0FFF1FE80FF91FE751FE4F8F
:100550001F738081807C812B808380E292E08E19E2
:100560009F0964E070E00E94410B6B8380E699E094
:100570008C199D0964E070E00E94410B6C83AA8194
:100580008A2F6CE00E94350B682F70E0AB01440F9E
:10059000551F460F571F440F551F440F551F20E08E
:1005A00030E0C901840F951FFC01EE0FFF1FE80F1B
:1005B000F91FE751FE4F808186FD12C02F5F3F4F2C
:1005C0002C30310571F721C01092900082E08093A9
:1005D0009100109295001092940088BB8093710056
:1005E0008A2F90E0FC01EE0FFF1FE80FF91FE75183
:1005F000FE4F8081806480838A81DF91CF911F913B
:10060000FF90EF90DF90CF900895672BE9F2E8CF4D
:1006100040E252E020E639E00E948C0208950F93F8
:100620001F93CF93DF93EC018B018A8190E0FC0153
:10063000EE0FFF1FE80FF91FE751FE4F808186FD87
:1006400009C0688179818FEF6F3F780719F0CE017B
:100650000E940803CE01B8010E942402DF91CF91CD
:100660001F910F9108951F920F920FB60F920BB624
:100670000F9211242F933F934F935F936F937F9328
:100680008F939F93AF93BF93EF93FF9380910D024E
:1006900087FF05C010929500109294002BC0209106
:1006A0000D02332727FD30958091E80190E028174F
:1006B000390704F580910D02992787FD9095FC017B
:1006C000EE0FFF1FE80FF91FE751FE4F808186FFF5
:1006D00011C080910D02992787FD9095FC01EE0FC6
:1006E000FF1FE80FF91FE751FE4F80818F7360E015
:1006F0000E947A0780910D028F5F80930D022091F6
:100700000D02332727FD30958091E80190E02817EE
:1007100039070CF04EC080910D028C300CF049C0AE
:10072000209194003091950080910D02992787FDCA
:100730009095FC01EE0FFF1FE80FF91FE751FE4FE8
:1007400081819281280F391F30939900209398005E
:1007500080910D02992787FD9095FC01EE0FFF1FF8
:10076000E80FF91FE751FE4F808186FF2BC0809173
:100770000D02992787FD9095FC01EE0FFF1FE80FF2
:10078000F91FE751FE4F80818F7361E00E947A0765
:1007900019C080E49CE905C0809194009091950077
:1007A000049690939900809398008FEF80930D02A8
:1007B00009C08091940090919500049680549C49C2
:1007C00040F3EACFFF91EF91BF91AF919F918F914D
:1007D0007F916F915F914F913F912F910F900BBE41
:1007E0000F900FBE0F901F901895EF92FF920F93EE
:1007F0001F93FC01162FF42EE22E0083118280E05D
:1008000090E0A0E0B0E082839383A483B5838683E5
:100810009783A087B1878DEC9CECACECBDE382871D
:100820009387A487B58766877787408B518B228B08
:10083000338B862F61E00E94FD068F2D61E00E94C0
:10084000FD068E2D61E00E94FD06812F60E00E9472
:100850007A078F2D60E00E947A078E2D60E00E945B
:100860007A071F910F91FF90EF900895EF92FF92FA
:100870000F93CF93DF93EC017B018130910509F059
:1008800019C18FEF6F3F780709F014C180E090E045
:10089000A8ECB2EC8093A6029093A702A093A802C2
:1008A000B093A9028EE092E06BE170E047E150E086
:1008B00028E130E001E00E94F50382E292E06CE181
:1008C00070E049E150E02AE130E00E94F50386E360
:1008D00092E00E94CE018BE392E00E94CE0180E480
:1008E00092E00E94CE0185E492E00E94CE018AE46B
:1008F00092E00E94CE018FE492E00E94CE0184E556
:1009000092E06EE070E00E94210110925B02109272
:100910005A02D0935D02C0935C0210925F02109263
:100920005E02D0936102C093600225E020936202D0
:10093000F0928202E09281028DE292EBA6E6B1E4AF
:100940008093630290936402A0936502B093660261
:1009500084E299EBACEDBFE3809367029093680269
:10096000A0936902B0936A0280E090E0A0EAB1E44B
:1009700080936B0290936C02A0936D02B0936E0211
:1009800084EB98ECA1E9B1E480936F02909370023C
:10099000A0937102B093720283E49CE1ADEAB0E4EB
:1009A0008093730290937402A0937502B0937602C1
:1009B00080E090E0ACE8B2E4809377029093780214
:1009C000A0937902B0937A028EEF91E090937C022B
:1009D00080937B0289EB90E090937E0280937D026E
:1009E00085E690E09093800280937F02D09384020A
:1009F000C093830220938502F092A502E092A402A4
:100A000086EE9FE3A8ECB0E4809386029093870281
:100A1000A0938802B09389028FE29DEDACEEBFE314
:100A200080938A0290938B02A0938C02B0938D02E4
:100A300080E090E0A0E2B1E480938E0290938F0278
:100A4000A0939002B09391028AEA92E8ACE0B1E4FC
:100A50008093920290939302A0939402B093950294
:100A60008AE191E5A2ECB0E480939602909397021C
:100A7000A0939802B093990280E090E0ACE0B2E4D9
:100A800080939A0290939B02A0939C02B0939D0244
:100A900083E092E090939F0280939E0287EA90E029
:100AA0009093A1028093A0028AE590E09093A30224
:100AB0008093A202DF91CF910F91FF90EF90089564
:100AC00080E090E06FEF7FEF0E943604089581E0B0
:100AD00090E06FEF7FEF0E943604089587EB92E07D
:100AE00040E052EC61E070E00E94DC0889E593E0B0
:100AF00040E855E260E070E00E94DC0880E00E947F
:100B0000DB060E940D0B8EE090E0909337028093FD
:100B100036028FE090E090933C0280933B0280E1AC
:100B200090E0909341028093400281E190E09093A5
:100B300046028093450282E190E090934B028093BD
:100B40004A0283E190E09093500280934F0208950F
:100B5000089580E090E0A8ECB2EC8093AA02909314
:100B6000AB02A093AC02B093AD0208950E946E0553
:100B700068EB7BE080E090E00E94730686E392E001
:100B800060E070E00E940F0368EE73E080E090E0A8
:100B90000E94730686E392E060EA70E00E940F0311
:100BA00068EE73E080E090E00E94730686E392E0D6
:100BB00064EB70E00E940F0368EE73E080E090E069
:100BC0000E947306D5CF1F920F920FB60F92112479
:100BD0002F933F938F939F93AF93BF938091B202D4
:100BE0009091B302A091B402B091B5023091B602D7
:100BF0000196A11DB11D232F2D5F2D3720F02D57FC
:100C00000196A11DB11D2093B6028093B20290936C
:100C1000B302A093B402B093B5028091AE0290915A
:100C2000AF02A091B002B091B1020196A11DB11D19
:100C30008093AE029093AF02A093B002B093B10242
:100C4000BF91AF919F918F913F912F910F900FBEC8
:100C50000F901F901895789484B5826084BD84B5F8
:100C6000816084BD85B5826085BD85B5816085BDA7
:100C7000EEE6F0E0808181608083E1E8F0E01082C0
:100C8000808182608083808181608083E0E8F0E001
:100C9000808181608083E1EBF0E0808184608083EB
:100CA000E0EBF0E0808181608083E1E9F0E0808129
:100CB00082608083808181608083E0E9F0E08081D0
:100CC00081608083EAE7F0E08081846080838081B6
:100CD000826080838081816080838081806880835E
:100CE0001092C1000895EF92FF920F931F93CF933C
:100CF000DF937B018C013FB7F8948091AE02909115
:100D0000AF02A091B002B091B10226B5A89B05C078
:100D10002F3F19F00196A11DB11D3FBFBA2FA92F7A
:100D2000982F8827820F911DA11DB11D52E0880FB9
:100D3000991FAA1FBB1F5A95D1F7EC0130C00E9422
:100D4000150B3FB7F8948091AE029091AF02A0913D
:100D5000B002B091B10226B5A89B05C02F3F19F093
:100D60000196A11DB11D3FBFBA2FA92F982F88272B
:100D7000820F911DA11DB11D32E0880F991FAA1F7E
:100D8000BB1F3A95D1F78C1B9D0B885E9340B8F240
:100D90000894E108F10801091109C851DC4FE11478
:100DA000F1040105110559F6DF91CF911F910F91C3
:100DB000FF90EF900895982F883108F09851977020
:100DC000809104018295880F880F807C892B809305
:100DD0007C0080917A00806480937A0080917A0010
:100DE00086FDFCCF2091780040917900942F80E01F
:100DF00030E0282B392BC9010895CF93DF93482F7A
:100E000050E0CA0188539F4FFC01349146555F4F13
:100E1000FA018491882369F190E0880F991FFC0101
:100E2000E457FF4FA591B491FC01EA56FF4FC591DD
:100E3000D491662351F42FB7F8948C91932F909509
:100E400089238C93888189230BC0623061F42FB78A
:100E5000F8948C91932F909589238C938881832B80
:100E600088832FBF06C09FB7F8948C91832B8C93F7
:100E70009FBFDF91CF9108958430C9F0853038F459
:100E80008230F1F0833078F4813099F516C08730E4
:100E9000F9F0883018F4863061F516C08830F1F02A
:100EA000893039F521C0809180008F7703C080910F
:100EB00080008F7D80938000089584B58F7702C075
:100EC00084B58F7D84BD08958091B0008F7703C075
:100ED0008091B0008F7D8093B00008958091900044
:100EE0008F77809390000895809190008F7D8093FC
:100EF00090000895FF920F931F93F62E482F50E015
:100F0000CA018A519F4FFC012491CA0188539F4F07
:100F1000FC01149146555F4FFA0104910023C9F07A
:100F2000222319F0822F0E943C07E02FF0E0EE0F01
:100F3000FF1FEA56FF4FA591B4919FB7F894FF2089
:100F400021F48C911095812302C08C91812B8C937C
:100F50009FBF1F910F91FF9008950F931F93482FEC
:100F600050E0CA018A519F4FFC012491CA01885365
:100F70009F4FFC01049146555F4FFA0114911123D4
:100F800019F420E030E015C0222319F0822F0E94CE
:100F90003C07812F90E0880F991F80569F4FFC01DE
:100FA000A591B4918C9120E030E0802311F021E0F4
:100FB00030E0C9011F910F91089508951F920F927B
:100FC0000FB60F920BB60F9211242F933F934F93AE
:100FD0008F939F93EF93FF938091C00082FD19C080
:100FE0004091C6008091D502282F30E02F5F3F4FFF
:100FF0002F7330708091D60290E02817390759F08E
:10100000E091D502F0E0E954FD4F42A32093D502D0
:1010100002C08091C600FF91EF919F918F914F91F7
:101020003F912F910F900BBE0F900FBE0F901F900E
:10103000189508951F920F920FB60F920BB60F924C
:1010400011242F933F934F938F939F93EF93FF938D
:101050008091C80082FD19C04091CE008091770335
:10106000282F30E02F5F3F4F2F733070809178032F
:1010700090E02817390759F0E0917703F0E0E75A3C
:10108000FC4F42A32093770302C08091CE00FF91D2
:10109000EF919F918F914F913F912F910F900BBEA8
:1010A0000F900FBE0F901F9018958091D502209140
:1010B000D60290E0805C9F4F821B91098F739070E5
:1010C000892B11F00E94DD0780917703209178032E
:1010D00090E0805C9F4F821B91098F739070892BE9
:1010E00011F00E94190808951F920F920FB60F92E7
:1010F0000BB60F9211242F938F939F93EF93FF932F
:101100009091D7028091D802981731F48091C10054
:101110008F7D8093C10010C0E091D802F0E0E75EBF
:10112000FC4F20818091D80290E001968F739070DF
:101130008093D8022093C600FF91EF919F918F91E9
:101140002F910F900BBE0F900FBE0F901F90189510
:101150001F920F920FB60F920BB60F9211242F937E
:101160008F939F93EF93FF939091790380917A03EC
:10117000981731F48091C9008F7D8093C90010C009
:10118000E0917A03F0E0E554FC4F208180917A03EE
:1011900090E001968F73907080937A032093CE0035
:1011A000FF91EF919F918F912F910F900BBE0F9018
:1011B0000FBE0F901F901895AF92BF92DF92EF92E3
:1011C000FF920F931F93CF93DF93EC017A018B0172
:1011D000DD24403081EE580780E0680780E0780722
:1011E00011F0DD24D39491E0A92EB12CE889F9897E
:1011F000DD2069F0C5010C8C02C0880F991F0A948C
:10120000E2F7808360E079E08DE390E005C0108232
:1012100060E874E88EE190E0A80197010E94540B09
:10122000215030404040504056954795379527957E
:1012300080E12030380720F0DD2011F0DD24D6CF0A
:10124000EC85FD853083EE85FF8520831D8EEA8940
:10125000FB89408121E030E0C901088C02C0880F81
:10126000991F0A94E2F7482B4083EA89FB89408161
:10127000C901098C02C0880F991F0A94E2F7482B14
:101280004083EA89FB894081C9010A8C02C0880F2A
:10129000991F0A94E2F7482B4083EA89FB898081F1
:1012A0000B8C02C0220F331F0A94E2F720952823EB
:1012B0002083DF91CF911F910F91FF90EF90DF90EE
:1012C000BF90AF900895FC01268D878D30E0205CA3
:1012D0003F4F281B31092F733070C9010895FC015D
:1012E000968D878D981719F42FEF3FEF06C0878DE5
:1012F000E80FF11D82A1282F30E0C9010895DC011B
:101300005E969C915E975F968C915F97981719F403
:101310002FEF3FEF10C05F968C915F97FD01E80FB4
:10132000F11D92A15F968C915F978F5F8F735F968F
:101330008C93292F30E0C9010895DC015D968C91D2
:101340005D97882339F05096ED91FC9151978081FB
:1013500086FFF9CF5D961C920895DC0190968C91E2
:101360009097282F30E02F5F3F4F2F73307091966A
:101370008C91919790E028173907C9F390968C913A
:101380009097FD01E80FF11DEE59FF4F6083909695
:101390002C9390975296ED91FC915397208181E088
:1013A00090E05B960C905B9702C0880F991F0A949F
:1013B000E2F7282B208381E05D968C935D97509611
:1013C000ED91FC91519780818064808381E090E071
:1013D00008951F931092BA021092B90228EE33E0DA
:1013E00040E050E02093BB023093BC024093BD022A
:1013F0005093BE0269E071E07093B8026093B70247
:101400001092D8028091D8028093D7021092D6020F
:101410008091D6028093D50285EC90E09093C4022F
:101420008093C30284EC90E09093C6028093C5023F
:1014300080EC90E09093C8028093C70281EC90E02A
:101440009093CA028093C90282EC90E09093CC0200
:101450008093CB0286EC90E09093CE028093CD02F5
:1014600014E01093CF02B3E0B093D002A7E0A093B2
:10147000D102F5E0F093D202E1E0E093D3021092C2
:101480005C0310925B0320935D0330935E034093F3
:101490005F035093600370935A0360935903109253
:1014A0007A0380917A038093790310927803809174
:1014B0007803809377038DEC90E09093660380939C
:1014C00065038CEC90E0909368038093670388EC4D
:1014D00090E090936A038093690389EC90E0909385
:1014E0006C0380936B038AEC90E090936E0380937F
:1014F0006D038EEC90E09093700380936F031093D4
:101500007103B0937203A0937303F0937403E09399
:1015100075031F910895CF93DF930E942B060E94BD
:10152000B605C5E5D8E00E94A8052097E1F30E9422
:101530005508F9CFCF92DF92EF92FF920F931F934E
:10154000CF93DF937C016B018A01C0E0D0E00FC034
:10155000D6016D916D01D701ED91FC910190F08163
:10156000E02DC7010995C80FD91F01501040011582
:10157000110571F7CE01DF91CF911F910F91FF906F
:10158000EF90DF90CF9008952F923F924F925F920D
:101590006F927F928F929F92AF92BF92CF92DF9283
:1015A000EF92FF920F931F93DF93CF93CDB7DEB7E8
:1015B0003B014C0119012A016D897E898F89988D23
:1015C0006A197B098C099D09621A730A840A950AB3
:1015D000A40193010E94160BE218F30804091509EF
:1015E000A80197010E94760B2A0D3B1D4C1D5D1D25
:1015F000B901CA01CF91DF911F910F91FF90EF9038
:10160000DF90CF90BF90AF909F908F907F906F9022
:101610005F904F903F902F900895009729F0BC0164
:1016200080E090E00E940B0108950895629FD00130
:10163000739FF001829FE00DF11D649FE00DF11D8D
:10164000929FF00D839FF00D749FF00D659FF00D3C
:101650009927729FB00DE11DF91F639FB00DE11D29
:10166000F91FBD01CF0111240895991B79E004C031
:10167000991F961708F0961B881F7A95C9F78095D1
:10168000089597FB092E07260AD077FD04D049D08C
:1016900006D000201AF4709561957F4F0895F6F7F3
:1016A000909581959F4F0895A1E21A2EAA1BBB1B0E
:1016B000FD010DC0AA1FBB1FEE1FFF1FA217B3071E
:1016C000E407F50720F0A21BB30BE40BF50B661F34
:1016D000771F881F991F1A9469F7609570958095F8
:1016E00090959B01AC01BD01CF01089597FB092E98
:1016F00005260ED057FD04D0D7DF0AD0001C38F4E1
:1017000050954095309521953F4F4F4F5F4F08952D
:10171000F6F790958095709561957F4F8F4F9F4F0D
:101720000895AA1BBB1B51E107C0AA1FBB1FA61728
:10173000B70710F0A61BB70B881F991F5A95A9F77A
:1017400080959095BC01CD010895EE0FFF1F059087
:10175000F491E02D09942F923F924F925F926F92F5
:101760007F928F929F92AF92BF92CF92DF92EF9231
:10177000FF920F931F93CF93DF93CDB7DEB7CA1BB2
:10178000DB0B0FB6F894DEBF0FBECDBF09942A88DD
:10179000398848885F846E847D848C849B84AA8485
:1017A000B984C884DF80EE80FD800C811B81AA8112
:1017B000B981CE0FD11D0FB6F894DEBF0FBECDBFDD
:1017C000ED01089511E0CCE0D1E004C0FE010E94DB
:0E17D000A70B2296CE30D107C9F7F894FFCFB1
:1017DE00010000000100000000AD099A0A63097FB4
:0617EE00096F099D0900CE
:00000001FF
