:100000000C9487000C94B1000C94B1000C94B100D6
:100010000C94B1000C94B1000C94B1000C94B1009C
:100020000C94B1000C9433020C94B1000C94B10008
:100030000C94B1000C94B1000C94B1000C94B1007C
:100040000C94B1000C94B1000C9431070C94B100E5
:100050000C94AA090C94400A0C94B1000C94B100C1
:100060000C94B1000C94B1000C94B1000C94B1004C
:100070000C94E6090C94740A0C94B1000C94B10031
:100080000C943E040C94B1000C94B10000002100CB
:10009000240027002A0000002200250028002B0051
:1000A00000002000230026002900040403030303AA
:1000B0000303030402020202010101010101010123
:1000C00004020202020404030102010204081020D7
:1000D0004040102040800102040810204080800130
:1000E0000208042010800000000000000000000052
:1000F0000000000000000000000000000000000000
:1001000000030400140166069606B50B5F06112471
:100110001FBECFEFD0E4DEBFCDBF11E0A0E0B1E065
:10012000E2EEFEE100E00BBF02C007900D92A631A7
:10013000B107D9F713E0A6E1B1E001C01D92AC3ED2
:10014000B107E1F711E0CCE0D1E004C02297FE0155
:100150000E94290FC430D107C9F70E94570C0C9494
:10016000640F0C940000A0E0B0E0E9EBF0E00C9428
:10017000350FEC01A880B980CA80DB80A114B104DE
:10018000C104D10441F484E2A82E89EDB82E8BE598
:10019000C82E87E0D82EC601B5012DE133EF41E02E
:1001A00050E00E94F80E27EA31E440E050E00E945F
:1001B000980E7B018C01C601B5012DE133EF41E0C2
:1001C00050E00E94F80ECA01B9012CEE34EF4FEF57
:1001D0005FEF0E94980E6E0D7F1D801F911F97FF8D
:1001E00004C06150704080409048688379838A835E
:1001F0009B839B01AC015F77B901CA01CDB7DEB724
:10020000EAE00C94510F0E94B300089580E091E061
:100210000E94B300089560930001709301018093E0
:10022000020190930301089580E090E0A8ECB2EC05
:100230008093160190931701A0931801B0931901B0
:1002400008956F927F928F929F92AF92BF92CF92BA
:10025000DF92EF92FF920F931F93CF93DF93EC0106
:100260003A014B01E0901601F0901701009118013E
:1002700010911901CB01BA01A80197010E94E20C6B
:1002800087FD17C0C401B30120E030E048EC52E420
:100290000E94310E18165CF40F2EF0E0EF2EF0E005
:1002A000FF2EF8EC0F2FF2E41F2FF02D02C0840177
:1002B00073018A819B81AC81BD818E839F83A887D6
:1002C000B987EA82FB820C831D838881882321F40D
:1002D00017FB109517F91095C801B70120E030E021
:1002E00048EC52E40E94E60C20E030E04FE753E493
:1002F0000E94350E5B016C01EA84FB840C851D8530
:10030000A80197010E94310E1816B4F500D000D054
:100310000DB71EB70F5F1F4FC401B3010E944E0DF2
:100320002FEF30E040E050E0F8012083318342833A
:10033000538320E030E040E050E0B4E6EB2EF12CB7
:10034000012D112DAFE7AA2EB12CC12CD12C0E946A
:10035000900C7B018C010F900F900F900F9088896B
:1003600061E00E9446098A8960E00E944609C8014E
:10037000B7010E94810D46C0A80197015058C601DF
:10038000B5010E94E20C88230CF045C000D000D0DB
:100390000DB71EB70F5F1F4FC401B3010E944E0D72
:1003A00021E03FEF4FEF5FEFF8012083318342837D
:1003B000538320E030E040E050E0FCE9EF2EFFEF17
:1003C000FF2EFFEF0F2FFFEF1F2FE1E8AE2EEFEF15
:1003D000BE2EEFEFCE2EEFEFDE2E0E94900C7B01B3
:1003E0008C010F900F900F900F90888960E00E9411
:1003F00046098A8961E00E944609C801B7010E9446
:10040000810D90580E944E0D9B01AC018E85B90163
:100410000E944B0811C08E8560E070E00E944B087E
:100420008E8560E00E944609888960E00E94460946
:100430008A8960E00E9446091982DF91CF911F915D
:100440000F91FF90EF90DF90CF90BF90AF909F9073
:100450008F907F906F900895FC01158260931A0130
:1004600010921C0108951F920F920FB60F920BB6B7
:100470000F9211242F933F934F935F936F937F932A
:100480008F939F93AF93BF93EF93FF9380911A0144
:100490000E947909482F80911D0190911E010196BB
:1004A00090931E0180931D018091E701843618F01E
:1004B00085E080931B0180911B018330D1F0843053
:1004C00020F4823009F059C006C0843071F18530C3
:1004D00009F053C04CC0442309F04FC080911D0166
:1004E00090911E018436910508F443C01092E701F3
:1004F0001EC0413009F041C08091E701E82FF0E0D3
:1005000020911D0130911E01EE0FFF1FE65EFE4F90
:10051000368325838F5F8093E70110921E0110922E
:100520001D0184E080931B0128C04423B9F480910D
:10053000E701E82FF0E020911D0130911E01EE0F40
:10054000FF1FE65EFE4F368325838F5F8093E701B2
:1005500010921E0110921D0183E0E4CF80911D01D5
:1005600090911E018536910540F085E0DBCF442354
:1005700021F410921E0110921D0180911C0188230C
:1005800029F0442311F42D9A01C02D98FF91EF9189
:10059000BF91AF919F918F917F916F915F914F919B
:1005A0003F912F910F900BBE0F900FBE0F901F9099
:1005B0001895FC018091E8018C3090F482838F5F64
:1005C0008093E801815090E0FC01EE0FFF1FE80FDF
:1005D000F91FE751FE4F88EB9BE0928381830895DA
:1005E0008FEF82830895FC0122812C30B8F583813E
:1005F000992787FD909548E850E0481B590B440F18
:10060000551F440F551F6417750784F0848199277F
:1006100087FD909548E552E0481B590B440F551F44
:10062000440F551F641775070CF4AB01425050403E
:10063000CA01AA2797FDA095BA2F880F991FAA1F54
:10064000BB1F4FB7F89430E0F901EE0FFF1FE20F28
:10065000F31FE751FE4F928381834FBF0895AF92FE
:10066000BF92CF92DF92EF92FF920F931F93CF939F
:10067000DF93EC019B0182E0603278070CF048C008
:1006800077FF03C020E030E005C0653B710514F042
:1006900024EB30E000D000D0B901882777FD8095A9
:1006A000982F2B81332727FD3095E8E8AE2EB12C0B
:1006B000A21AB30AAA0CBB1CAA0CBB1CCC24B7FC04
:1006C000C094DC2CEC81FF27E7FDF09528E532E0B3
:1006D0002E1B3F0B220F331F220F331F442737FDE2
:1006E0004095542FEDB7FEB7218332834383548363
:1006F00020E030E040E050E004EBE02EF12C012D52
:10070000112D0E94900C9B010F900F900F900F9055
:10071000CE01B9010E94F302DF91CF911F910F9199
:10072000FF90EF90DF90CF90BF90AF900895CF9261
:10073000DF92EF92FF921F93CF93DF93EC01162F7E
:100740007A0169018A818C3008F061C0862F61E0EE
:100750000E94C9088A8190E0FC01EE0FFF1FE80F9C
:10076000F91FE751FE4F1F738081807C812B8083AE
:1007700080E292E08E199F0964E070E00E94C30E4F
:100780006B8380E699E08C199D0964E070E00E941B
:10079000C30E6C83AA818A2F6CE00E94B70E682F6B
:1007A00070E0AB01440F551F460F571F440F551FF4
:1007B000440F551F20E030E0C901840F951FFC0154
:1007C000EE0FFF1FE80FF91FE751FE4F808186FDF6
:1007D00012C02F5F3F4F2C30310571F721C01092AE
:1007E000900082E080939100109295001092940006
:1007F00088BB809371008A2F90E0FC01EE0FFF1FF1
:10080000E80FF91FE751FE4F8081806480838A8161
:10081000DF91CF911F91FF90EF90DF90CF900895DF
:10082000672BE9F2E8CF40E252E020E639E00E948F
:10083000970308950F931F93CF93DF93EC018B01E0
:100840008A8190E0FC01EE0FFF1FE80FF91FE751CE
:10085000FE4F808186FD09C0688179818FEF6F3FEF
:10086000780719F0CE010E941304CE01B8010E944E
:100870002F03DF91CF911F910F9108951F920F9237
:100880000FB60F920BB60F9211242F933F934F93F5
:100890005F936F937F938F939F93AF93BF93EF93E8
:1008A000FF9380910D0287FF05C010929500109272
:1008B00094002BC020910D02332727FD30958091A5
:1008C000E80190E02817390704F580910D02992777
:1008D00087FD9095FC01EE0FFF1FE80FF91FE75110
:1008E000FE4F808186FF11C080910D02992787FD00
:1008F0009095FC01EE0FFF1FE80FF91FE751FE4F27
:1009000080818F7360E00E94460980910D028F5FA5
:1009100080930D0220910D02332727FD30958091A1
:10092000E80190E0281739070CF04EC080910D02C5
:100930008C300CF049C0209194003091950080914A
:100940000D02992787FD9095FC01EE0FFF1FE80F20
:10095000F91FE751FE4F81819281280F391F309393
:1009600099002093980080910D02992787FD90951A
:10097000FC01EE0FFF1FE80FF91FE751FE4F8081CA
:1009800086FF2BC080910D02992787FD9095FC0171
:10099000EE0FFF1FE80FF91FE751FE4F80818F73A5
:1009A00061E00E94460919C080E49CE905C080917D
:1009B00094009091950004969093990080939800EC
:1009C0008FEF80930D0209C0809194009091950063
:1009D000049680549C4940F3EACFFF91EF91BF9178
:1009E000AF919F918F917F916F915F914F913F91C7
:1009F0002F910F900BBE0F900FBE0F901F90189568
:100A0000EF92FF920F931F93FC01162FF42EE22E0C
:100A10000083118280E090E0A0E0B0E082839383C5
:100A2000A483B58386839783A087B1878DEC9CECE4
:100A3000ACECBDE382879387A487B5876687778709
:100A4000408B518B228B338B862F61E00E94C9082B
:100A50008F2D61E00E94C9088E2D61E00E94C908B7
:100A6000812F60E00E9446098F2D60E00E944609B8
:100A70008E2D60E00E9446091F910F91FF90EF902C
:100A80000895EF92FF920F93CF93DF93EC017B01D8
:100A90008130910509F00DC18FEF6F3F780709F0A4
:100AA00008C180E090E0A8ECB2EC809397029093AC
:100AB0009802A0939902B0939A028EE092E06BE1C3
:100AC00070E047E150E028E130E001E00E940005DD
:100AD00082E292E06CE170E049E150E02AE130E02E
:100AE0000E94000586E392E00E94D9028BE392E027
:100AF0000E94D90280E492E00E94D90285E492E04B
:100B00006EE070E00E942C0210924C0210924B0298
:100B1000D0934E02C0934D021092500210924F0299
:100B2000D0935202C093510225E020935302F092D9
:100B30007302E09272028DE292EBA6E6B1E480933A
:100B4000540290935502A0935602B093570284E248
:100B500099EBACEDBFE38093580290935902A093B8
:100B60005A02B0935B0280E090E0A0EAB1E4809387
:100B70005C0290935D02A0935E02B0935F0284EBEF
:100B800098ECA1E9B1E48093600290936102A09394
:100B90006202B093630283E49CE1ADEAB0E4809327
:100BA000640290936502A0936602B093670280E0AE
:100BB00090E0ACE8B2E48093680290936902A0935D
:100BC0006A02B0936B028EEF91E090936D02809376
:100BD0006C0289EB90E090936F0280936E0285E641
:100BE00090E09093710280937002D0937502C0934D
:100BF000740220937602F0929602E092950286EEBD
:100C00009FE3A8ECB0E48093770290937802A093DE
:100C10007902B0937A028FE29DEDACEEBFE3809350
:100C20007B0290937C02A0937D02B0937E0280E0D1
:100C300090E0A0E2B1E480937F0290938002A093C1
:100C40008102B09382028AEA92E8ACE0B1E4809338
:100C5000830290938402A0938502B09386028AE176
:100C600091E5A2ECB0E48093870290938802A09370
:100C70008902B0938A0280E090E0ACE0B2E4809315
:100C80008B0290938C02A0938D02B0938E0283E02E
:100C900092E09093900280938F0287EA90E0909385
:100CA0009202809391028AE590E09093940280935F
:100CB0009302DF91CF910F91FF90EF90089580E024
:100CC00090E06FEF7FEF0E944105089581E090E092
:100CD0006FEF7FEF0E944105089588EA92E040E0BF
:100CE00052EC61E070E00E94A80A8AE493E040E8D8
:100CF00055E260E070E00E94A80A80E00E942908A6
:100D00000E94D90C80E190E09093370280933602E4
:100D100083E190E090933C0280933B0285E190E078
:100D200090934102809340020895089580E090E0FE
:100D3000A8ECB2EC80939B0290939C02A0939D023E
:100D4000B0939E020895CF93DF930E946D068AE4CC
:100D500093E00E944B0BAA2797FDA095BA2FBC01E8
:100D6000CD010E94810D0E944E0DEB01613671058F
:100D700089F48EE092E040E050E060EF71E40E9480
:100D8000210182E292E040E050E060EF71E40E94D5
:100D9000210130C06236710589F48EE092E040E0B6
:100DA00050E060EF71EC0E94210182E292E040E0AD
:100DB00050E060EF71EC0E94210130C06336710594
:100DC00079F48EE092E040E050E060E070E00E9454
:100DD000210182E292E040E050E060E271E41BC059
:100DE0006436710539F48EE092E040E050E060E254
:100DF00071E409C0C536D10589F48EE092E040E087
:100E000050E060E070E00E94210182E292E040E068
:100E100050E060E070E00E94210199CFC636D10514
:100E200009F095CF8BE392E064EB70E00E941A0426
:100E300064E670E080E090E00E94C1078BE392E0FE
:100E40006CE370E00E941A0468EE73E080E090E0CA
:100E50000E94C1078BE392E060E070E00E941A04F8
:100E600076CF1F920F920FB60F9211242F933F93BC
:100E70008F939F93AF93BF938091A3029091A4020D
:100E8000A091A502B091A6023091A7020196A11DE2
:100E9000B11D232F2D5F2D3720F02D570196A11D59
:100EA000B11D2093A7028093A3029093A402A09364
:100EB000A502B093A60280919F029091A002A091FA
:100EC000A102B091A2020196A11DB11D80939F02C3
:100ED0009093A002A093A102B093A202BF91AF9100
:100EE0009F918F913F912F910F900FBE0F901F9068
:100EF0001895789484B5826084BD84B5816084BD82
:100F000085B5826085BD85B5816085BDEEE6F0E082
:100F1000808181608083E1E8F0E0108280818260DE
:100F20008083808181608083E0E8F0E0808181605F
:100F30008083E1EBF0E0808184608083E0EBF0E08F
:100F4000808181608083E1E9F0E08081826080833C
:100F5000808181608083E0E9F0E08081816080832E
:100F6000EAE7F0E080818460808380818260808312
:100F70008081816080838081806880831092C1003D
:100F80000895EF92FF920F931F93CF93DF937B010E
:100F90008C013FB7F89480919F029091A002A0919C
:100FA000A102B091A20226B5A89B05C02F3F19F05F
:100FB0000196A11DB11D3FBFBA2FA92F982F8827D9
:100FC000820F911DA11DB11D52E0880F991FAA1F0C
:100FD000BB1F5A95D1F7EC0130C00E94E10C3FB71E
:100FE000F89480919F029091A002A091A102B091EB
:100FF000A20226B5A89B05C02F3F19F00196A11D9E
:10100000B11D3FBFBA2FA92F982F8827820F911D9E
:10101000A11DB11D32E0880F991FAA1FBB1F3A9571
:10102000D1F78C1B9D0B885E9340B8F20894E108C1
:10103000F10801091109C851DC4FE114F10401055F
:10104000110559F6DF91CF911F910F91FF90EF900D
:101050000895982F883108F0985197708091040175
:101060008295880F880F807C892B80937C008091EB
:101070007A00806480937A0080917A0086FDFCCFAC
:101080002091780040917900942F80E030E0282B67
:10109000392BC90108951F93CF93DF93182FEB01CC
:1010A00061E00E94C908209709F468C0CF3FD105CC
:1010B00009F467C0E12FF0E0EA51FF4F84918430DA
:1010C00061F1853040F48230C9F08330E0F4813042
:1010D00009F051C00EC0873091F1883020F486307D
:1010E00009F049C024C0883091F1893009F043C02B
:1010F00038C084B5806884BDC7BD47C084B58062F0
:1011000084BDC8BD42C0809180008068809380000B
:10111000D0938900C093880038C08091800080629D
:1011200080938000D0938B00C0938A002EC0809162
:10113000B00080688093B000C093B30026C0809157
:10114000B00080628093B000C093B4001EC0809154
:101150009000806880939000D0939900C09398008D
:1011600014C080919000806280939000D0939B0087
:10117000C0939A000AC0C038D1051CF4812F60E0EA
:1011800002C0812F61E00E944609DF91CF911F913B
:101190000895CF93DF93482F50E0CA0188539F4FA3
:1011A000FC01349146555F4FFA018491882369F11F
:1011B00090E0880F991FFC01E457FF4FA591B4916F
:1011C000FC01EA56FF4FC591D491662351F42FB725
:1011D000F8948C91932F909589238C9388818923FF
:1011E0000BC0623061F42FB7F8948C91932F9095D7
:1011F00089238C938881832B88832FBF06C09FB758
:10120000F8948C91832B8C939FBFDF91CF9108959D
:101210008430C9F0853038F48230F1F0833078F4CE
:10122000813099F516C08730F9F0883018F486308F
:1012300061F516C08830F1F0893039F521C0809110
:1012400080008F7703C0809180008F7D8093800025
:10125000089584B58F7702C084B58F7D84BD0895CD
:101260008091B0008F7703C08091B0008F7D809314
:10127000B0000895809190008F778093900008953A
:10128000809190008F7D809390000895FF920F933E
:101290001F93F62E482F50E0CA018A519F4FFC0140
:1012A0002491CA0188539F4FFC01149146555F4F0A
:1012B000FA0104910023C9F0222319F0822F0E9421
:1012C0000809E02FF0E0EE0FFF1FEA56FF4FA5914F
:1012D000B4919FB7F894FF2021F48C91109581234D
:1012E00002C08C91812B8C939FBF1F910F91FF9017
:1012F00008950F931F93482F50E0CA018A519F4FC2
:10130000FC012491CA0188539F4FFC01049146556A
:101310005F4FFA011491112319F420E030E015C059
:10132000222319F0822F0E940809812F90E0880F54
:10133000991F80569F4FFC01A591B4918C9120E09C
:1013400030E0802311F021E030E0C9011F910F91BE
:10135000089508951F920F920FB60F920BB60F9239
:1013600011242F933F934F938F939F93EF93FF936A
:101370008091C00082FD19C04091C6008091C602D4
:10138000282F30E02F5F3F4F2F7330708091C702BE
:1013900090E02817390759F0E091C602F0E0E855CF
:1013A000FD4F42A32093C60202C08091C600FF9168
:1013B000EF919F918F914F913F912F910F900BBE85
:1013C0000F900FBE0F901F90189508951F920F92C7
:1013D0000FB60F920BB60F9211242F933F934F939A
:1013E0008F939F93EF93FF938091C80082FD19C064
:1013F0004091CE0080916803282F30E02F5F3F4F4F
:101400002F7330708091690390E02817390759F0E5
:10141000E0916803F0E0E65BFC4F42A32093680391
:1014200002C08091CE00FF91EF919F918F914F91DB
:101430003F912F910F900BBE0F900FBE0F901F90FA
:1014400018958091C6022091C70290E0805C9F4F62
:10145000821B91098F739070892B11F00E94A9094A
:10146000809168032091690390E0805C9F4F821B0C
:1014700091098F739070892B11F00E94E5090895EE
:101480001F920F920FB60F920BB60F9211242F934B
:101490008F939F93EF93FF939091C8028091C9021D
:1014A000981731F48091C1008F7D8093C10010C0E6
:1014B000E091C902F0E0E65FFC4F20818091C90213
:1014C00090E001968F7390708093C9022093C600BC
:1014D000FF91EF919F918F912F910F900BBE0F90E5
:1014E0000FBE0F901F9018951F920F920FB60F927C
:1014F0000BB60F9211242F938F939F93EF93FF932B
:1015000090916A0380916B03981731F48091C90020
:101510008F7D8093C90010C0E0916B03F0E0E4552B
:10152000FC4F208180916B0390E001968F73907047
:1015300080936B032093CE00FF91EF919F918F9149
:101540002F910F900BBE0F900FBE0F901F9018950C
:10155000AF92BF92DF92EF92FF920F931F93CF93C0
:10156000DF93EC017A018B01DD24403081EE5807D6
:1015700080E0680780E0780711F0DD24D39491E0E3
:10158000A92EB12CE889F989DD2069F0C5010C8C00
:1015900002C0880F991F0A94E2F7808360E079E027
:1015A0008DE390E005C0108260E874E88EE190E081
:1015B000A80197010E94D60E215030404040504073
:1015C000569547953795279580E12030380720F0CC
:1015D000DD2011F0DD24D6CFEC85FD853083EE854E
:1015E000FF8520831D8EEA89FB89408121E030E060
:1015F000C901088C02C0880F991F0A94E2F7482B92
:101600004083EA89FB894081C901098C02C0880FA7
:10161000991F0A94E2F7482B4083EA89FB894081AD
:10162000C9010A8C02C0880F991F0A94E2F7482B5F
:101630004083EA89FB8980810B8C02C0220F331F13
:101640000A94E2F7209528232083DF91CF911F9100
:101650000F91FF90EF90DF90BF90AF900895FC0145
:10166000268D878D30E0205C3F4F281B31092F737A
:101670003070C9010895FC01968D878D981719F473
:101680002FEF3FEF06C0878DE80FF11D82A1282FB5
:1016900030E0C9010895DC015E969C915E975F96EB
:1016A0008C915F97981719F42FEF3FEF10C05F965A
:1016B0008C915F97FD01E80FF11D92A15F968C91CF
:1016C0005F978F5F8F735F968C93292F30E0C901EE
:1016D0000895DC015D968C915D97882339F05096D2
:1016E000ED91FC915197808186FFF9CF5D961C9218
:1016F0000895DC0190968C919097282F30E02F5F11
:101700003F4F2F73307091968C91919790E02817EE
:101710003907C9F390968C919097FD01E80FF11D60
:10172000EE59FF4F608390962C9390975296ED91CF
:10173000FC915397208181E090E05B960C905B9741
:1017400002C0880F991F0A94E2F7282B208381E0BA
:101750005D968C935D975096ED91FC9151978081A9
:101760008064808381E090E008951F931092AB0223
:101770001092AA0228EE33E040E050E02093AC0241
:101780003093AD024093AE025093AF0269E071E036
:101790007093A9026093A8021092C9028091C902B5
:1017A0008093C8021092C7028091C7028093C6023C
:1017B00085EC90E09093B5028093B40284EC90E0C5
:1017C0009093B7028093B60280EC90E09093B902B8
:1017D0008093B80281EC90E09093BB028093BA02B0
:1017E00082EC90E09093BD028093BC0286EC90E086
:1017F0009093BF028093BE0214E01093C002B3E046
:10180000B093C102A7E0A093C202F5E0F093C30237
:10181000E1E0E093C40210924D0310924C03209338
:101820004E0330934F0340935003509351037093F2
:101830004B0360934A0310926B0380916B03809378
:101840006A031092690380916903809368038DECA9
:1018500090E090935703809356038CEC90E0909324
:1018600059038093580388EC90E090935B03809336
:101870005A0389EC90E090935D0380935C038AECBB
:1018800090E090935F0380935E038EEC90E09093E2
:1018900061038093600310936203B0936303A0938A
:1018A0006403F0936503E09366031F910895CF935B
:1018B000DF930E9479070E94A306C1E2DAE00E944A
:1018C00095062097E1F30E94210AF9CFCF92DF928B
:1018D000EF92FF920F931F93CF93DF937C016B01E5
:1018E0008A01C0E0D0E00FC0D6016D916D01D70133
:1018F000ED91FC910190F081E02DC7010995C80F91
:10190000D91F015010400115110571F7CE01DF916B
:10191000CF911F910F91FF90EF90DF90CF9008959E
:101920002F923F924F925F926F927F928F929F92EF
:10193000AF92BF92CF92DF92EF92FF920F931F93DD
:10194000DF93CF93CDB7DEB73B014C0119012A01DC
:101950006D897E898F89988D6A197B098C099D090B
:10196000621A730A840A950AA40193010E94980ED0
:10197000E218F30804091509A80197010E94F80E5E
:101980002A0D3B1D4C1D5D1DB901CA01CF91DF9190
:101990001F910F91FF90EF90DF90CF90BF90AF908D
:1019A0009F908F907F906F905F904F903F902F907F
:1019B0000895009729F0BC0180E090E00E940B019F
:1019C00008950895D9D008F481E008950CD00FC18E
:1019D00007D140F0FED030F021F45F3F19F0F0C0A5
:1019E000511139C1F3C014D198F39923C9F3552388
:1019F000B1F3951B550BBB27AA2762177307840702
:101A000038F09F5F5F4F220F331F441FAA1FA9F3B7
:101A100033D00E2E3AF0E0E830D091505040E695A9
:101A2000001CCAF729D0FE2F27D0660F771F881F0A
:101A3000BB1F261737074807AB07B0E809F0BB0BF9
:101A4000802DBF01FF2793585F4F2AF09E3F51051D
:101A500068F0B6C000C15F3FECF3983EDCF38695BA
:101A600077956795B795F7959F5FC9F7880F911D93
:101A70009695879597F90895E1E0660F771F881F7F
:101A8000BB1F621773078407BA0720F0621B730B32
:101A9000840BBA0BEE1F88F7E095089504D0689484
:101AA000B111D9C00895BCD088F09F5790F0B92FDC
:101AB0009927B751A0F0D1F0660F771F881F991FA3
:101AC0001AF0BA95C9F712C0B13081F0C3D0B1E0B5
:101AD0000895C0C0672F782F8827B85F39F0B93FC5
:101AE000CCF3869577956795B395D9F73EF49095A5
:101AF0008095709561957F4F8F4F9F4F0895E89423
:101B000009C097FB3EF490958095709561957F4F45
:101B10008F4F9F4F9923A9F0F92F96E9BB279395F3
:101B2000F695879577956795B795F111F8CFFAF403
:101B3000BB0F11F460FF1BC06F5F7F4F8F4F9F4F34
:101B400016C0882311F096E911C0772321F09EE892
:101B5000872F762F05C0662371F096E8862F70E0F8
:101B600060E02AF09A95660F771F881FDAF7880FD2
:101B70009695879597F90895990F0008550FAA0B28
:101B8000E0E8FEEF16161706E807F907C0F0121690
:101B90001306E407F50798F0621B730B840B950B93
:101BA00039F40A2661F0232B242B252B21F40895E8
:101BB0000A2609F4A140A6958FEF811D811D089585
:101BC00097F99F6780E870E060E008959FEF80ECF0
:101BD000089500240A941616170618060906089593
:101BE00000240A9412161306140605060895092EF9
:101BF0000394000C11F4882352F0BB0F40F4BF2B68
:101C000011F460FF04C06F5F7F4F8F4F9F4F0895A7
:101C100057FD9058440F551F59F05F3F71F047959D
:101C2000880F97FB991F61F09F3F79F08795089582
:101C3000121613061406551FF2CF4695F1DF08C0A1
:101C4000161617061806991FF1CF869571056105BE
:101C500008940895E894BB2766277727CB0197F966
:101C600008958ADF08F48FEF08950BD0C0CFB1DF5D
:101C700028F0B6DF18F0952309F0A2CFA7CF1124E2
:101C8000EACFC6DFA0F3959FD1F3950F50E0551F23
:101C9000629FF001729FBB27F00DB11D639FAA27C1
:101CA000F00DB11DAA1F649F6627B00DA11D661F10
:101CB000829F2227B00DA11D621F739FB00DA11D31
:101CC000621F839FA00D611D221F749F3327A00DEB
:101CD000611D231F849F600D211D822F762F6A2F87
:101CE00011249F5750408AF0E1F088234AF0EE0F0C
:101CF000FF1FBB1F661F771F881F91505040A9F719
:101D00009E3F510570F05CCFA6CF5F3FECF3983E4D
:101D1000DCF3869577956795B795F795E7959F5F7F
:101D2000C1F7FE2B880F911D9695879597F9089519
:101D3000629FD001739FF001829FE00DF11D649FAF
:101D4000E00DF11D929FF00D839FF00D749FF00D3B
:101D5000659FF00D9927729FB00DE11DF91F639FDC
:101D6000B00DE11DF91FBD01CF0111240895991B8C
:101D700079E004C0991F961708F0961B881F7A9582
:101D8000C9F78095089597FB092E07260AD077FD9D
:101D900004D049D006D000201AF4709561957F4F89
:101DA0000895F6F7909581959F4F0895A1E21A2E18
:101DB000AA1BBB1BFD010DC0AA1FBB1FEE1FFF1FEF
:101DC000A217B307E407F50720F0A21BB30BE40B3F
:101DD000F50B661F771F881F991F1A9469F7609586
:101DE0007095809590959B01AC01BD01CF01089540
:101DF00097FB092E05260ED057FD04D0D7DF0AD059
:101E0000001C38F450954095309521953F4F4F4F29
:101E10005F4F0895F6F790958095709561957F4F87
:101E20008F4F9F4F0895AA1BBB1B51E107C0AA1FEC
:101E3000BB1FA617B70710F0A61BB70B881F991F6B
:101E40005A95A9F780959095BC01CD010895EE0FA4
:101E5000FF1F0590F491E02D09942F923F924F922D
:101E60005F926F927F928F929F92AF92BF92CF922A
:101E7000DF92EF92FF920F931F93CF93DF93CDB733
:101E8000DEB7CA1BDB0B0FB6F894DEBF0FBECDBFAB
:101E900009942A88398848885F846E847D848C847C
:101EA0009B84AA84B984C884DF80EE80FD800C8185
:101EB0001B81AA81B981CE0FD11D0FB6F894DEBF68
:101EC0000FBECDBFED01089511E0CCE0D1E004C01C
:101ED000FE010E94290F2296CE30D107C9F7F8944F
:021EE000FFCF32
:101EE200010000000100000000790B660C2F0B4B73
:061EF2000B3B0B690B0025
:00000001FF
