:100000000C9487000C94B1000C94B1000C94B100D6
:100010000C94B1000C94B1000C94B1000C94B1009C
:100020000C94B1000C9428010C94B1000C94B10014
:100030000C94B1000C94B1000C94B1000C94B1007C
:100040000C94B1000C94B1000C94BD040C94B1005C
:100050000C945E070C94F4070C94B1000C94B1005E
:100060000C94B1000C94B1000C94B1000C94B1004C
:100070000C949A070C9428080C94B1000C94B100CD
:100080000C94E8010C94B1000C94B1000000210024
:10009000240027002A0000002200250028002B0051
:1000A00000002000230026002900040403030303AA
:1000B0000303030402020202010101010101010123
:1000C00004020202020404030102010204081020D7
:1000D0004040102040800102040810204080800130
:1000E0000208042010800000000000000000000052
:1000F0000000000000000000000000000000000000
:100100000003040014011C045E0469091504112491
:100110001FBECFEFD0E4DEBFCDBF11E0A0E0B1E065
:10012000EEE4F7E100E00BBF02C007900D92AC31A6
:10013000B107D9F714E0ACE1B1E001C01D92A130E4
:10014000B107E1F711E0CCE0D1E004C02297FE0155
:100150000E945F0BC430D107C9F70E940B0A0C94B0
:100160009A0B0C940000A0E0B0E0E9EBF0E00C94F6
:100170006B0BEC01A880B980CA80DB80A114B104AC
:10018000C104D10441F484E2A82E89EDB82E8BE598
:10019000C82E87E0D82EC601B5012DE133EF41E02E
:1001A00050E00E94420B27EA31E440E050E00E9418
:1001B000010B7B018C01C601B5012DE133EF41E05C
:1001C00050E00E94420BCA01B9012CEE34EF4FEF10
:1001D0005FEF0E94010B6E0D7F1D801F911F97FF27
:1001E00004C06150704080409048688379838A835E
:1001F0009B839B01AC015F77B901CA01CDB7DEB724
:10020000EAE00C94870B0E94B300089587E091E028
:100210000E94B300089560930701709308018093D2
:10022000090190930A01089580E090E0A8ECB2ECF7
:1002300080931C0190931D01A0931E01B0931F0198
:100240000895FC0115826093200110922201089507
:100250001F920F920FB60F920BB60F9211242F938D
:100260003F934F935F936F937F938F939F93AF933E
:10027000BF93EF93FF93809120010E949106482F36
:100280008091230190912401019690932401809301
:1002900023018091ED01843618F085E080932101DF
:1002A000809121018330D1F0843020F4823009F034
:1002B00059C006C0843071F1853009F053C04CC07C
:1002C000442309F04FC0809123019091240184368A
:1002D000910508F443C01092ED011EC0413009F0B1
:1002E00041C08091ED01E82FF0E020912301309191
:1002F0002401EE0FFF1FE05EFE4F368325838F5FE4
:100300008093ED01109224011092230184E08093E8
:10031000210128C04423B9F48091ED01E82FF0E0D9
:100320002091230130912401EE0FFF1FE05EFE4F6C
:10033000368325838F5F8093ED0110922401109204
:10034000230183E0E4CF809123019091240185363D
:10035000910540F085E0DBCF442321F41092240185
:100360001092230180912201882329F0442311F463
:100370002D9A01C02D98FF91EF91BF91AF919F9160
:100380008F917F916F915F914F913F912F910F903E
:100390000BBE0F900FBE0F901F901895FC0180911F
:1003A000EE018C3090F482838F5F8093EE01815058
:1003B00090E0FC01EE0FFF1FE80FF91FE151FE4F27
:1003C00088EB9BE09283818308958FEF8283089569
:1003D0001F920F920FB60F920BB60F9211242F930C
:1003E0003F934F935F936F937F938F939F93AF93BD
:1003F000BF93EF93FF938091130287FF05C0109284
:100400009500109294002BC020911302332727FDF2
:1004100030958091EE0190E02817390704F580911E
:100420001302992787FD9095FC01EE0FFF1FE80F3F
:10043000F91FE151FE4F808186FF11C080911302A8
:10044000992787FD9095FC01EE0FFF1FE80FF91F1C
:10045000E151FE4F80818F7360E00E945E068091C3
:1004600013028F5F8093130220911302332727FD1D
:1004700030958091EE0190E0281739070CF04EC0BE
:10048000809113028C300CF049C02091940030917F
:10049000950080911302992787FD9095FC01EE0F3E
:1004A000FF1FE80FF91FE151FE4F81819281280F54
:1004B000391F309399002093980080911302992757
:1004C00087FD9095FC01EE0FFF1FE80FF91FE1512A
:1004D000FE4F808186FF2BC080911302992787FDF4
:1004E0009095FC01EE0FFF1FE80FF91FE151FE4F41
:1004F00080818F7361E00E945E0619C080E49CE9F0
:1005000005C0809194009091950004969093990075
:10051000809398008FEF8093130209C0809194001C
:1005200090919500049680549C4940F3EACFFF9146
:10053000EF91BF91AF919F918F917F916F915F915B
:100540004F913F912F910F900BBE0F900FBE0F90C8
:100550001F901895EF92FF920F931F93FC01162F97
:10056000F42EE22E0083118280E090E0A0E0B0E063
:1005700082839383A483B58386839783A087B1877F
:100580008DEC9CECACECBDE382879387A487B587A8
:1005900066877787408B518B228B338B862F61E068
:1005A0000E94E1058F2D61E00E94E1058E2D61E042
:1005B0000E94E105812F60E00E945E068F2D60E0C1
:1005C0000E945E068E2D60E00E945E061F910F91D4
:1005D000FF90EF900895EF92FF920F93CF93DF93E8
:1005E000EC017B018130910509F019C18FEF6F3F5C
:1005F000780709F014C180E090E0A8ECB2EC809399
:10060000AC029093AD02A093AE02B093AF0284E12E
:1006100092E06BE170E047E150E028E130E001E07A
:100620000E94AA0288E292E06CE170E049E150E0A9
:100630002AE130E00E94AA028CE392E00E94CE01FF
:1006400081E492E00E94CE0186E492E00E94CE0115
:100650008BE492E00E94CE0180E592E00E94CE0100
:1006600085E592E00E94CE018AE592E06EE070E0BE
:100670000E9421011092610210926002D0936302E5
:10068000C09362021092650210926402D0936702D6
:10069000C093660225E020936802F0928802E092FF
:1006A00087028DE292EBA6E6B1E480936902909313
:1006B0006A02A0936B02B0936C0284E299EBACEDFA
:1006C000BFE380936D0290936E02A0936F02B0938C
:1006D000700280E090E0A0EAB1E480937102909310
:1006E0007202A0937302B093740284EB98ECA1E9B8
:1006F000B1E48093750290937602A0937702B09351
:10070000780283E49CE1ADEAB0E4809379029093AF
:100710007A02A0937B02B0937C0280E090E0ACE888
:10072000B2E480937D0290937E02A0937F02B09307
:1007300080028EEF91E0909382028093810289EB98
:1007400090E0909384028093830285E690E09093FA
:10075000860280938502D0938A02C09389022093F7
:100760008B02F092AB02E092AA0286EE9FE3A8EC25
:10077000B0E480938C0290938D02A0938E02B0938C
:100780008F028FE29DEDACEEBFE3809390029093D9
:100790009102A0939202B093930280E090E0A0E2D5
:1007A000B1E48093940290939502A0939602B09343
:1007B00097028AEA92E8ACE0B1E4809398029093C1
:1007C0009902A0939A02B0939B028AE191E5A2EC70
:1007D000B0E480939C0290939D02A0939E02B093FC
:1007E0009F0280E090E0ACE0B2E48093A00290939E
:1007F000A102A093A202B093A30283E092E090939F
:10080000A5028093A40287EA90E09093A7028093C8
:10081000A6028AE590E09093A9028093A802DF9156
:10082000CF910F91FF90EF90089580E090E06FEFEF
:100830007FEF0E94EB02089581E090E06FEF7FEF81
:100840000E94EB0208958DEB92E040E052EC61E0F3
:1008500070E00E945C088FE593E040E855E260E0BC
:1008600070E00E945C0880E00E94BF050E94930A2D
:100870008EE090E090933D0280933C028FE090E008
:10088000909342028093410280E190E0909347026E
:100890008093460281E190E090934C0280934B025A
:1008A00082E190E0909351028093500283E190E0C6
:1008B00090935602809355020895089580E090E049
:1008C000A8ECB2EC8093B0029093B102A093B20274
:1008D000B093B3020895809364029093650261E03F
:1008E0000E94E1058091640260E00E945E0682E061
:1008F00090E00E9405058091640261E00E945E061E
:1009000085E090E00E9405058091640260E00E940D
:100910005E068091640260E00E94E10580916402BD
:1009200061E020E432E44FE050E00E94C1062AE397
:1009300030E040E050E00E94420BCA01B901089546
:100940000E9423048FE090E00E946B040E94A20AA0
:1009500020E030E040E251E40E949C0A882334F415
:100960008DEB92E060E071E00E94800A68EE73E037
:1009700080E090E00E945705E5CF1F920F920FB6DE
:100980000F9211242F933F938F939F93AF93BF9315
:100990008091B8029091B902A091BA02B091BB02C5
:1009A0003091BC020196A11DB11D232F2D5F2D3763
:1009B00020F02D570196A11DB11D2093BC028093FC
:1009C000B8029093B902A093BA02B093BB0280918F
:1009D000B4029091B502A091B602B091B70201960F
:1009E000A11DB11D8093B4029093B502A093B602ED
:1009F000B093B702BF91AF919F918F913F912F918B
:100A00000F900FBE0F901F901895019739F0880F27
:100A1000991F880F991F02970197F1F7089578940D
:100A200084B5826084BD84B5816084BD85B58260F3
:100A300085BD85B5816085BDEEE6F0E08081816091
:100A40008083E1E8F0E01082808182608083808191
:100A500081608083E0E8F0E0808181608083E1EB69
:100A6000F0E0808184608083E0EBF0E08081816051
:100A70008083E1E9F0E08081826080838081816011
:100A80008083E0E9F0E0808181608083EAE7F0E044
:100A900080818460808380818260808380818160A6
:100AA00080838081806880831092C1000895EF92D6
:100AB000FF920F931F93CF93DF937B018C013FB77E
:100AC000F8948091B4029091B502A091B602B091D1
:100AD000B70226B5A89B05C02F3F19F00196A11DAE
:100AE000B11D3FBFBA2FA92F982F8827820F911DC4
:100AF000A11DB11D52E0880F991FAA1FBB1F5A9557
:100B0000D1F7EC0130C00E949B0A3FB7F894809166
:100B1000B4029091B502A091B602B091B70226B589
:100B2000A89B05C02F3F19F00196A11DB11D3FBF25
:100B3000BA2FA92F982F8827820F911DA11DB11DB3
:100B400032E0880F991FAA1FBB1F3A95D1F78C1B63
:100B50009D0B885E9340B8F20894E108F108010902
:100B60001109C851DC4FE114F1040105110559F6D2
:100B7000DF91CF911F910F91FF90EF900895982FE3
:100B8000883108F09851977080910B018295880FF9
:100B9000880F807C892B80937C0080917A00806410
:100BA00080937A0080917A0086FDFCCF20917800B6
:100BB00040917900942F80E030E0282B392BC90137
:100BC0000895CF93DF93482F50E0CA0188539F4F79
:100BD000FC01349146555F4FFA018491882369F1F5
:100BE00090E0880F991FFC01E457FF4FA591B49145
:100BF000FC01EA56FF4FC591D491662351F42FB7FB
:100C0000F8948C91932F909589238C9388818923D4
:100C10000BC0623061F42FB7F8948C91932F9095AC
:100C200089238C938881832B88832FBF06C09FB72D
:100C3000F8948C91832B8C939FBFDF91CF91089573
:100C40008430C9F0853038F48230F1F0833078F4A4
:100C5000813099F516C08730F9F0883018F4863065
:100C600061F516C08830F1F0893039F521C08091E6
:100C700080008F7703C0809180008F7D80938000FB
:100C8000089584B58F7702C084B58F7D84BD0895A3
:100C90008091B0008F7703C08091B0008F7D8093EA
:100CA000B0000895809190008F7780939000089510
:100CB000809190008F7D809390000895FF920F9314
:100CC0001F93F62E482F50E0CA018A519F4FFC0116
:100CD0002491CA0188539F4FFC01149146555F4FE0
:100CE000FA0104910023C9F0222319F0822F0E94F7
:100CF0002006E02FF0E0EE0FFF1FEA56FF4FA59110
:100D0000B4919FB7F894FF2021F48C911095812322
:100D100002C08C91812B8C939FBF1F910F91FF90EC
:100D200008950F931F93482F50E0CA018A519F4F97
:100D3000FC012491CA0188539F4FFC010491465540
:100D40005F4FFA011491112319F420E030E015C02F
:100D5000222319F0822F0E942006812F90E0880F15
:100D6000991F80569F4FFC01A591B4918C9120E072
:100D700030E0802311F021E030E0C9011F910F9194
:100D800008958F929F92AF92BF92CF92DF92EF928F
:100D9000FF920F931F93CF93DF93A82FB0E0CD0165
:100DA00088539F4FFC018490A655BF4FFD0184914D
:100DB000662311F4992401C0982C6FEFA62E6FEFD3
:100DC000B62E6FEFC62E6FE0D62EA222B322C4221B
:100DD000D522682F70E0660F771F60567F4FEE2494
:100DE000FF248701FB01A591B4910BC0EA14FB0419
:100DF0000C051D0509F44EC00894E11CF11C011DF1
:100E0000111D8C918821891589F30CC0EA14FB040B
:100E10000C051D0509F43EC00894E11CF11C011DE0
:100E2000111D03C0FB01A591B4918C9188218915F6
:100E300069F720E030E040E050E0FB01C591D4913B
:100E40000FC0DA01C9018E0D9F1DA01FB11F8A15A9
:100E50009B05AC05BD05F1F02F5F3F4F4F4F5F4F36
:100E600088818821891569F3CA01B90125E130E03B
:100E700040E050E00E94010B9B01AC01205F3F4F1E
:100E80004F4F5F4F84E056954795379527958A9544
:100E9000D1F704C020E030E040E050E0B901CA01E1
:100EA000DF91CF911F910F91FF90EF90DF90CF9046
:100EB000BF90AF909F908F90089508951F920F92CA
:100EC0000FB60F920BB60F9211242F933F934F93AF
:100ED0008F939F93EF93FF938091C00082FD19C081
:100EE0004091C6008091DB02282F30E02F5F3F4FFA
:100EF0002F7330708091DC0290E02817390759F089
:100F0000E091DB02F0E0E354FD4F42A32093DB02CB
:100F100002C08091C600FF91EF919F918F914F91F8
:100F20003F912F910F900BBE0F900FBE0F901F900F
:100F3000189508951F920F920FB60F920BB60F924D
:100F400011242F933F934F938F939F93EF93FF938E
:100F50008091C80082FD19C04091CE0080917D0330
:100F6000282F30E02F5F3F4F2F73307080917E032A
:100F700090E02817390759F0E0917D03F0E0E15A3D
:100F8000FC4F42A320937D0302C08091CE00FF91CD
:100F9000EF919F918F914F913F912F910F900BBEA9
:100FA0000F900FBE0F901F9018958091DB0220913B
:100FB000DC0290E0805C9F4F821B91098F739070E0
:100FC000892B11F00E945D0780917D0320917E03A3
:100FD00090E0805C9F4F821B91098F739070892BEA
:100FE00011F00E94990708951F920F920FB60F9269
:100FF0000BB60F9211242F938F939F93EF93FF9330
:101000009091DD028091DE02981731F48091C10049
:101010008F7D8093C10010C0E091DE02F0E0E15EC0
:10102000FC4F20818091DE0290E001968F739070DA
:101030008093DE022093C600FF91EF919F918F91E4
:101040002F910F900BBE0F900FBE0F901F90189511
:101050001F920F920FB60F920BB60F9211242F937F
:101060008F939F93EF93FF9390917F0380918003E1
:10107000981731F48091C9008F7D8093C90010C00A
:10108000E0918003F0E0EF53FC4F208180918003DA
:1010900090E001968F739070809380032093CE0030
:1010A000FF91EF919F918F912F910F900BBE0F9019
:1010B0000FBE0F901F901895AF92BF92DF92EF92E4
:1010C000FF920F931F93CF93DF93EC017A018B0173
:1010D000DD24403081EE580780E0680780E0780723
:1010E00011F0DD24D39491E0A92EB12CE889F9897F
:1010F000DD2069F0C5010C8C02C0880F991F0A948D
:10110000E2F7808360E079E08DE390E005C0108233
:1011100060E874E88EE190E0A80197010E94200B3E
:10112000215030404040504056954795379527957F
:1011300080E12030380720F0DD2011F0DD24D6CF0B
:10114000EC85FD853083EE85FF8520831D8EEA8941
:10115000FB89408121E030E0C901088C02C0880F82
:10116000991F0A94E2F7482B4083EA89FB89408162
:10117000C901098C02C0880F991F0A94E2F7482B15
:101180004083EA89FB894081C9010A8C02C0880F2B
:10119000991F0A94E2F7482B4083EA89FB898081F2
:1011A0000B8C02C0220F331F0A94E2F720952823EC
:1011B0002083DF91CF911F910F91FF90EF90DF90EF
:1011C000BF90AF900895FC01268D878D30E0205CA4
:1011D0003F4F281B31092F733070C9010895FC015E
:1011E000968D878D981719F42FEF3FEF06C0878DE6
:1011F000E80FF11D82A1282F30E0C9010895DC011C
:101200005E969C915E975F968C915F97981719F404
:101210002FEF3FEF10C05F968C915F97FD01E80FB5
:10122000F11D92A15F968C915F978F5F8F735F9690
:101230008C93292F30E0C9010895DC015D968C91D3
:101240005D97882339F05096ED91FC9151978081FC
:1012500086FFF9CF5D961C920895DC0190968C91E3
:101260009097282F30E02F5F3F4F2F73307091966B
:101270008C91919790E028173907C9F390968C913B
:101280009097FD01E80FF11DEE59FF4F6083909696
:101290002C9390975296ED91FC915397208181E089
:1012A00090E05B960C905B9702C0880F991F0A94A0
:1012B000E2F7282B208381E05D968C935D97509612
:1012C000ED91FC91519780818064808381E090E072
:1012D00008951F931092C0021092BF0228EE33E0CF
:1012E00040E050E02093C1023093C2024093C30219
:1012F0005093C40260E171E07093BE026093BD023E
:101300001092DE028091DE028093DD021092DC02F8
:101310008091DC028093DB0285EC90E09093CA021E
:101320008093C90284EC90E09093CC028093CB022E
:1013300080EC90E09093CE028093CD0281EC90E01F
:101340009093D0028093CF0282EC90E09093D202EF
:101350008093D10286EC90E09093D4028093D302E4
:1013600014E01093D502B3E0B093D602A7E0A093A7
:10137000D702F5E0F093D802E1E0E093D9021092B1
:1013800062031092610320936303309364034093DC
:101390006503509366037093600360935F0310923C
:1013A00080038091800380937F0310927E0380915D
:1013B0007E0380937D038DEC90E090936C0380938B
:1013C0006B038CEC90E090936E0380936D0388EC3C
:1013D00090E09093700380936F0389EC90E090937A
:1013E0007203809371038AEC90E09093740380936E
:1013F00073038EEC90E090937603809375031093C3
:101400007703B0937803A0937903F0937A03E09382
:101410007B031F910895CF93DF930E940F050E94D5
:10142000A004C5EDD7E00E945D042097E1F30E947F
:10143000D507F9CFCF92DF92EF92FF920F931F93D0
:10144000CF93DF937C016B018A01C0E0D0E00FC035
:10145000D6016D916D01D701ED91FC910190F08164
:10146000E02DC7010995C80FD91F01501040011583
:10147000110571F7CE01DF91CF911F910F91FF9070
:10148000EF90DF90CF900895EF92FF920F931F930C
:101490008C01DC01ED91FC910190F081E02D6DE07B
:1014A00009957C01D801ED91FC910190F081E02D2E
:1014B000C8016AE009959C012E0D3F1DC9011F91CD
:1014C0000F91FF90EF900895CF93DF93EC0161159A
:1014D000710519F420E030E00FC0DB010D90002011
:1014E000E9F71197A61BB70BE881F9810280F38118
:1014F000E02DAD0109959C01C901DF91CF910895BF
:10150000EF92FF920F931F937C010E94640A8C015B
:10151000C7010E94440A080F191FC8011F910F91AB
:10152000FF90EF900895009729F0BC0180E090E0D3
:101530000E940B010895089540D008F481E00895B9
:10154000E89409C097FB3EF490958095709561955D
:101550007F4F8F4F9F4F9923A9F0F92F96E9BB2713
:101560009395F695879577956795B795F111F8CF8F
:10157000FAF4BB0F11F460FF1BC06F5F7F4F8F4FFA
:101580009F4F16C0882311F096E911C0772321F0F0
:101590009EE8872F762F05C0662371F096E8862F88
:1015A00070E060E02AF09A95660F771F881FDAF7DF
:1015B000880F9695879597F90895990F0008550F0C
:1015C000AA0BE0E8FEEF16161706E807F907C0F0C9
:1015D00012161306E407F50798F0621B730B840BD1
:1015E000950B39F40A2661F0232B242B252B21F4AB
:1015F00008950A2609F4A140A6958FEF811D811D4B
:101600000895629FD001739FF001829FE00DF11D4C
:10161000649FE00DF11D929FF00D839FF00D749F6C
:10162000F00D659FF00D9927729FB00DE11DF91F18
:10163000639FB00DE11DF91FBD01CF011124089575
:10164000A1E21A2EAA1BBB1BFD010DC0AA1FBB1FC6
:10165000EE1FFF1FA217B307E407F50720F0A21B38
:10166000B30BE40BF50B661F771F881F991F1A94A5
:1016700069F760957095809590959B01AC01BD01CF
:10168000CF01089597FB092E05260ED057FD04D0F3
:10169000D7DF0AD0001C38F450954095309521953D
:1016A0003F4F4F4F5F4F0895F6F790958095709597
:1016B00061957F4F8F4F9F4F0895EE0FFF1F05904D
:1016C000F491E02D09942F923F924F925F926F9286
:1016D0007F928F929F92AF92BF92CF92DF92EF92C2
:1016E000FF920F931F93CF93DF93CDB7DEB7CA1B43
:1016F000DB0B0FB6F894DEBF0FBECDBF09942A886E
:10170000398848885F846E847D848C849B84AA8415
:10171000B984C884DF80EE80FD800C811B81AA81A2
:10172000B981CE0FD11D0FB6F894DEBF0FBECDBF6D
:10173000ED01089511E0CCE0D1E004C0FE010E946B
:0E1740005F0B2296CE30D107C9F7F894FFCF89
:10174E00436C6F7365210001000000010000000072
:0C175E002D091A0AE308FF08EF081D0916
:00000001FF
